:020000040800F2
:1000000000080020A5010008AD010008AF010008AC
:10001000B1010008B3010008B501000800000000AC
:10002000000000000000000000000000B701000810
:10003000B901000800000000BB010008BD01000874
:10004000BF010008BF010008BF010008BF01000890
:10005000BF010008BF010008FD15000815160008C3
:100060002D1600086916000881160008BF01000857
:10007000BF010008BF010008BF010008BF01000860
:10008000BF010008BF010008BF010008BF01000850
:10009000BF010008BF010008BF010008BD1600082D
:1000A000BF010008BF010008BF010008BF01000830
:1000B000011B0008211B0008451B0008BF010008A8
:1000C000BF010008BF010008BF010008BF01000810
:1000D000BF010008611B0008051C0008211C000866
:1000E000BF010008BF010008BF01000800F002F8CE
:1000F00000F048F80AA090E8000C82448344AAF17A
:100100000107DA4501D100F03DF8AFF2090EBAE877
:100110000F0013F0010F18BFFB1A43F0010318473B
:10012000643D0000843D0000103A24BF78C878C1C7
:10013000FAD8520724BF30C830C144BF04680C60ED
:10014000704700000023002400250026103A28BF35
:1001500078C1FBD8520728BF30C148BF0B60704739
:100160001FB500F0C7FB04000020002102F0FAFCDC
:10017000401C60600020002102F0DEFCE0601FBD3A
:1001800010B510BD00F0C2F81146FFF7E9FF02F00C
:10019000C1F800F065FB03B4FFF7F2FF03BC01F008
:1001A000D5FD00000948804709480047FEE7FEE703
:1001B000FEE7FEE7FEE7FEE7FEE7FEE7FEE7FEE717
:1001C00004480549054A064B70470000A11A00087B
:1001D000ED000008000200200008002000040020BC
:1001E000000400207047704770477047704710B593
:1001F00000F05AF8006810BD10B5044600F054F83D
:10020000046010BD0FB4002300B589B00CA90091A3
:100210000B99CB60214B7B440693214B7B44079386
:1002200004236FF00042CDE901321E4A7A446B4646
:1002300008920246002003F0BDFD09B05DF814FBF2
:1002400070B506464FF0FF3015460C46324686B074
:100250000091CDE9010169460020049004A8FFF750
:10026000D1FF02460498211825B108B1084600E0E4
:1002700020462860049800280DD0002A02DD00984E
:10028000884208D03246081B69460094CDE9010433
:1002900004A8FFF7B7FF06B070BD0000A90000007A
:1002A000C10000008100000000487047A00100204C
:1002B00010B5044600F050F80068005D00F0010041
:1002C00010BD426842B1016811F8013B23B1521ED2
:1002D000C0E90012184670470121C160881E7047AE
:1002E00042685AB1C368016843B983688B4205D03C
:1002F000491E521CC0E90012002070474FF0FF3029
:100300007047000000487047A00100207546FFF7C5
:10031000F9FFAE4605006946534620F007008546C2
:1003200018B020B5FFF74CFFBDE820404FF00006A5
:100330004FF000074FF000084FF0000B21F00701CD
:10034000AC46ACE8C009ACE8C009ACE8C009ACE810
:10035000C0098D467047000010B500F0CBFA001DB3
:1003600010BD00BF012800002DE9FF4F06468BB0ED
:100370000878FF2806D0491C2D2805D000244FF00E
:10038000000908E000200CE00124F8E709EB8903EC
:10039000491C00EB43090878FF28F7D114B1C9F1D3
:1003A00000008146107800252C46AA4629462D28B3
:1003B00001D02B2804D1521C2D2813D000208246B6
:1003C0008B461078FF280FD04FF0000C0A21521CEA
:1003D000A5FB017804FB018105FB0C11C5194BEB52
:1003E0000104EEE70120EAE7002108464FF0000093
:1003F000BAF1000F02D000EB80004008C0F3815733
:10040000012F01DD4FF0FF370E9955EA040009EB8B
:1004100001080BD04FF0020918F5FA7F16DA4FEAFF
:10042000CA70002F706008DD012007E04FEACA7033
:10043000C6E900B00FB0BDE8F08F00203060FFF7D4
:1004400033FFC0F800901821084616E0B8F5FA7F8F
:1004500018DD002F02DAF748784401E0F6487844C6
:10046000D0E90010C6E9001040EACA707060FFF7DA
:100470001BFFC0F80090142108460FB0BDE8F04FF4
:1004800003F035BC002108464FF00000B8F1000130
:10049000099002DAC7F1000200E03A4601DAC8F139
:1004A000000106A800F02AFA06AB93E8070003ABA8
:1004B00083E8070044F23E005BEA040100905846DE
:1004C00004D144F21E012C465D460091210C090422
:1004D000014306D10099240444EA15442D0410393F
:1004E000009104F07F41014306D10099240244EABF
:1004F00015642D020839009104F07041014306D1C2
:100500000099240144EA15742D01091F009104F09B
:100510004041014306D10099A40044EA9574AD001E
:10052000891E009104F00041084304D100986D1920
:100530006441401E00904FF001033A466846B8F10E
:10054000000FCDE9014503A902DD00F020FF01E025
:1005500000F0F3FEBAF1000F04460D4601D084F01E
:100560000044002108464FF00000099940F2FF774F
:10057000484010F00C0F07D124F00040284303D06E
:10058000C4F30A50B84212D1FFF78EFEC0F80090B3
:10059000C4F30A50B8420AD1A8487844D0E9001000
:1005A000C6E9001004F000410843706042E7C6E964
:1005B00000543FE72DE9FF4F1F464FF0000A4FF070
:1005C000FF38454691B0D7E90146CDF83CA000F090
:1005D00091F9C0680168405C1090B96912986D1C6F
:1005E0008847396A814688470028F6D1B9F1FF3F2C
:1005F0000AD0002E24F4D06411DDB9F12B0F08D0FD
:10060000B9F12D0F0BD102E0404615B013E744F4C9
:100610008064B96912986D1C8847761E8146600512
:1006200004A901D52D2000E02B20002E01F1010BA3
:100630000DF130088DF810003FDDB9F1690F08D0D9
:10064000B9F1490F05D0B9F16E0F02D0B9F14E0FD3
:100650001CD13B4601A8009580E85002DDE912124A
:100660006FF0020003F0AAFBC11CCED10EE0B96905
:1006700012986D1C884781461398761E44F40074C6
:1006800005600F98401C002E0F9016DDB9F1300F59
:10069000EDD0B9F1780F02D0B9F1580F0DD10F9804
:1006A00001280AD13B46CDE90054DDE91212001FB2
:1006B000029603F081FBC11CA7D1109989453ED158
:1006C00044F0800406E01399681CAAF1010A44F47E
:1006D00000740860B9696D1C1298761E884730282E
:1006E0008146F0D02BE01099894505D1200603D42E
:1006F000761E44F0800418E0484601F020FB08B361
:10070000761E0DF123018B4544F4007408D2A9F143
:1007100030000BF8010B200607D5AAF1010003E019
:10072000200602D40AF101008246A00502D51399E1
:10073000681C0860B96912986D1C88478146002EB4
:10074000D1DC53E0002E51DDB9F1650F02D0B9F1D3
:10075000450F4BD1A00549D5B9696D1C1298761E7D
:1007600024F440748847002E81460CDD2B2804D0E9
:10077000B9F12D0F07D144F48074B96912986D1C3A
:100780008847761E8146E00501D52D2100E02B210A
:1007900008F8011BCDF8008021E0761E0DF139012B
:1007A000884544F400740CD2A9F1300010F0FF0029
:1007B00088F8000002D10099884509D908F101089C
:1007C00006E0E00501D51E4801E042F20F708246C6
:1007D000B96912986D1C8847814613980560002EF0
:1007E00004DD484601F0ABFA0028D6D1F969129829
:1007F0008847FF2053468BF8000088F8000000204F
:100800000A900B9004AA0CA90AA8FFF7ADFDA00559
:1008100002D46FF00100F8E614F0240F12D0E007C4
:100820001CD13868DDE90A12031D3B600068C0E98D
:10083000001213E0503A0000423A0000063900006E
:10084000F1D8FFFF0AA9684601F008FAE00705D1D0
:100850003868009A011D3960006802602846D4E6B5
:1008600010B50446AFF300802046BDE81040FFF706
:1008700092BC00004FF0013C50F8042B51F8043BAF
:100880009A4221D1A2EB0C03934313EACC1317D164
:1008900050F8042B51F8043B9A4215D1A2EB0C03FB
:1008A000934313EACC130BD150F8042B51F8043BBB
:1008B0009A4209D1A2EB0C03934313EACC13DBD089
:1008C0004FF00000704700BFD01A01BAB1FA81F1B1
:1008D00001F0180122FA01F0CB40C1F12001DBB296
:1008E000C0B2C01A2CFA01F3D11A914311EAC31114
:1008F000E6D1704700487047C00100202DE9F0475D
:10090000814616468AB0354878440DC88DE80D00FA
:1009100032487844801C03AC0DC884E80D0041F6D1
:100920009B300844372190FBF1F290FBF1F5A5F1E3
:10093000800501FB12041B3C02D56442012000E04B
:100940000020DFF898A080460027FA44AAF1BE0AEA
:100950000EE0E0070AD03246684607EB4701012364
:100960000AEB810100F0FEFC8DE8070064107F1C9B
:10097000002CEED1194F7F44AE3F19E0E80715D0A7
:1009800007EB04100DF1180A90E80E008AE80E003B
:10099000C068F04201D1981908903246012306A997
:1009A00003A800F0DFFC03AB83E807006D10641CB4
:1009B000002DE3D14FF0010332466946B8F1000F34
:1009C00003A802D000F0A4FC01E000F0CBFCC9E9D0
:1009D0000001C9F808200AB0BDE8F08760350000C2
:1009E0002DE9FF4F1F464FF03C0987B04FF0004202
:1009F000DDE9141001F10108DDF858A002EA4050C9
:100A00000390002005908346054604460490B9698A
:100A1000461E08988847AAF1010A0290BAF1000F11
:100A20003BDD02982E2815D0102100F016FA002880
:100A30002EDB4FF0010B0599014317D0B9F1000FE0
:100A40000BDB4A46C11700F0F5F905430C43A9F149
:100A5000040905E0012004900BE008B145F0010510
:100A600001200590049820B9361D02E0049800B1D9
:100A7000361FB969089808F101088847BBF1000FD3
:100A8000AAF1010A0290C9D00999C1F80080C5E70E
:100A90000298702808D0502806D0F969089888472D
:100AA000BBF1000F14D04FE0002002900120BBF1F9
:100AB000000F049009D0B969089808F10108884727
:100AC000AAF10109B9F1000F07DCF9690898884714
:100AD0006FF001000BB0BDE8F08F2B2804D02D285B
:100AE0000CD14FF0FF300490B969089808F1010863
:100AF0008847A9F10109B9F1000FE6DD411CE4D0F6
:100B00000A2100F0AAF90028DFDB029908F10108A8
:100B100001EB810100EB41000290B9690898884718
:100B20000A2100F09AF9099AA9F10109B9F1000F17
:100B3000C2F8008001DD0028E7DAF96908988847E3
:100B40000499029800FB016655EA040004D004F001
:100B50004041090002D006E0039898E0A40044EA6E
:100B60009574AD00B61E04F00041080002D16D1965
:100B70006441761E159810F0240F03D04FF00B0936
:100B80005C4803E04FF028096FF07D00824656452F
:100B900007DAAAEB06018944B9F1410F01DD4FF0F4
:100BA000410901200021A9F1010200F043F90246A8
:100BB00028400B462140084301D0012100E00021DC
:100BC000501E029143F1FF3128402140084301D0DB
:100BD000012000E000200299834651EA0B014FD02A
:100BE000002108464FF00000039900F4400039B19D
:100BF00000EB80004FF4400100EBD07001EA600090
:100C00008015012802DD4FF0FF3000E013D0401CBA
:100C100036D0029860B3BBF1000F0CD14A460120D8
:100C2000002100F007F928402140084301D00120AD
:100C300000E00020E0B101204A46002100F0FAF86F
:100C4000034640190A4661412D1A8C4111D3B9F16E
:100C5000400F09DD159810F0240F02D0AAF13406D8
:100C600003E0AAF1170600E0761C00254FF00044CF
:100C700006E05B1E42F1FF3220EA030521EA02048E
:100C8000CAF10100B04206DA1B49039808430190FB
:100C9000002000900EE0039AC4F3D321E80A0A432F
:100CA000164940EA44500A433146CDE900026846FD
:100CB00001F03AF8159810F0240F0BD01598C007E2
:100CC00015D13868DDE90012031D3B600068C0E9FA
:100CD00000120CE002A8694600F0C0FF1598C0079A
:100CE00005D13868029A011D3960006802604046EB
:100CF000F0E6000002FCFFFF0000F07F0000F03F84
:100D00002DE9FF4F92461D4685B04FF00041DDE9C9
:100D1000124BDDE914727F1E01EA4B50414940F04D
:100D2000FF4940EA0108002122F0200049280491EF
:100D300002D04E2828D04CE03BA0012607C88DE801
:100D40000700A9690698641C88477F1E014606D4DF
:100D50001DF8060018B121F0200181420BD0E9698D
:100D600006988847032E34D0082E32D06FF0010049
:100D700009B0BDE8F08F761C032E01D0082EE0D11B
:100D8000601CCAF80000DCE7A9690698641C884763
:100D90007F1E2AD420F02000412826D1A969069878
:100DA000641C88477F1E20D420F020004E281CD1D0
:100DB000A9690698641C88477F1E48F4002849F4F6
:100DC0008009CAF8004001D4282806D0E9690698AD
:100DD00088475FEACB7012D022E0A9690698641CAC
:100DE00088477F1E01D4002803DAE96906988847FE
:100DF000BCE72928F1D1641CCAF80040E9E71BF0E0
:100E0000240F07D028680499031D2B600068C0E9EF
:100E1000001805E02868021D2A600068C0F80090EC
:100E20002046A5E70000F07F494E46494E495459F7
:100E300000000000B2F120030AD5C2F1200301FA3C
:100E400002F120FA03F300FA02F041EA03017047CD
:100E500000FA03F14FF0000070473A2800D2303812
:100E600020F02002412A01D3A2F13700884201D3A9
:100E70004FF0FF30704720F07F4C80EA030023F0F2
:100E80007F47ACEB070303F57C5300F0004003F110
:100E9000FF032DE980494FEA154B09B44FEA14438B
:100EA00025EA0B4E24EA03480FF2042606EB13272B
:100EB00049083E785FEA320203FB0667C7F5000780
:100EC00007FB06F64FEA54374FEAD64606F102060C
:100ED00007FB066CCCF1005C4FEA1C472CEA074C80
:100EE00007FB06F40CFB06F504EB15464FEA9616D5
:100EF00034BF00204FF000404FEAD13706FB07FC1B
:100F00004FEA1C4C0CFB0BF7D21B03FB0CF761EBFD
:100F100007010CFB0EF7B0EB074072EB17420CFB1E
:100F200008F734BFA2EB0742B2EB074261EB17416F
:100F30004FEA0C444FEA910706FB07FC4FEA1C4CB2
:100F40000CFB0BF7B0EBC74072EB573203FB0CF70F
:100F500034BFA2EBC742B2EBC74261EB57310CFB87
:100F60000EF7B0EBC70072EB57720CFB08F734BFFB
:100F7000A2EBC702B2EBC70261EB5771039F4FEAC6
:100F8000816141EA921104EBCC044FEAD1374FEA78
:100F9000826206FB07FC42EA90124FEA80604FEA49
:100FA0001C4C0CFB0BF7D21B03FB0CF761EB07018E
:100FB0000CFB0EF7B0EB074072EB17420CFB08F787
:100FC00034BFA2EB0742B2EB074261EB17414FEA95
:100FD0008C554FEA910704EB9C2406FB07FC4FEA73
:100FE0001C4C0CFB0BF7B0EBC74072EB573203FB0A
:100FF0000CF734BFA2EBC742B2EBC74261EB5731EB
:101000000CFB0EF7B0EBC70072EB57720CFB08F746
:1010100034BFA2EBC702B2EBC70261EB577115EB0D
:101020004C254FEA816141EA92114FEA82624FEA10
:10103000D13742EA901206FB07FC44F100044FEA64
:1010400080604FEA1C4C0CFB0BF7D21B03FB0CF728
:1010500061EB07010CFB0EF7B0EB074072EB174298
:101060000CFB08F734BFA2EB0742B2EB074261EB7F
:10107000174115EB1C154FEA813141EA92414FEAC5
:10108000823242EA90424FEA80304FEA0C7644F1D5
:10109000000448EA03434EEA0B484FF0000EB2EB5F
:1010A000080C71EB030724BF624639464EEB0E0E67
:1010B0004FF0000B0018524149414BEB0B0BB2EBC8
:1010C000080C71EB03077BF1000B24BF6246394625
:1010D0004EEB0E0E4FF0000B0018524149414BEB06
:1010E0000B0BB2EB080C71EB03077BF1000B24BF79
:1010F000624639464EEB0E0E51EA020718BF46F023
:10110000010616EB0E7655F1000254F1000103D5ED
:10111000BDE88901BDE80088BDE88901BDE8004857
:10112000B619524141EB0101A3F1010370478080E0
:101130007F7E7D7C7B7A7978777676757473727131
:1011400071706F6E6E6D6C6C6B6A6A6968686766E9
:1011500066656464636362616160605F5F5E5E5D7B
:101160005D5C5C5B5B5A5A595958585757565655EF
:1011700055555454535352525251515050504F4F51
:101180004F4E4E4D4D4D4C4C4C4B4B4B4A4A4A49A1
:1011900049494848484747474746464645454544E4
:1011A000444444434343434242424241414100009C
:1011B00046EA0646A3F570534FEA164646EA4256FB
:1011C0004FEAD22242EA415210B54FEAD121A3F1AF
:1011D000010300F02FF820F0004000F1020C00F0B5
:1011E000004701EB00501146BCF5006F40EA0700D4
:1011F00000D210BDBAF1000F0AD01CB503B44FF0F5
:1012000004004FF004014FF000000FBCBDE8104097
:101210004FF00001BBF1010FB9BF04484FF0FF319F
:101220000348002140EA070010BD00BFFFFFEF7F29
:101230000000F07F002B9C4630D477002BD01CB5EB
:101240004FEA370703B44FF010004FF01001BAF126
:10125000000F06D0BCF1000FDCBF40F0080040F0EA
:1012600008014FF000000FBCBDE810400BF1010B6E
:10127000BBF1010F08BF5FEA170722BF12F101029D
:1012800011F101014FF0004143F1000300F0004073
:1012900043EA00007047F9D35708D0E746EA06460C
:1012A00013F1400F4FEA16461FDD13F1200FDFBF89
:1012B00016430A46002120335B42BED0C3F120070B
:1012C00046EA064602FA07F74FEA164646EA0706D6
:1012D000C3F1200722FA03F201FA07F721FA03F11A
:1012E0004FF0000342EA0702A7E746EA020646EA91
:1012F00006464FEA164646EA0106BCBF46EA0646DF
:10130000360C4FF000034FF000024FF0000194E75D
:101310002DE9804C9A46934670B491E8380007C88E
:1013200031EA400C48BF34EA430C03D5FFF7A3FD74
:10133000FFF780FFF0BCBDE8008C2DE9804C9A4699
:10134000934670B491E8380007C831EA400C48BFB2
:1013500034EA430C03D5FFF78EFDFFF729FFF0BCFD
:10136000BDE8008C2DE9804C9A46934670B491E814
:10137000380007C810F0804F08BF13F0804F03D12A
:1013800000F01AF8FFF756FFF0BCBDE8008C2DE91D
:10139000804C9A46934670B491E8380007C810F024
:1013A000804F08BF13F0804F03D100F005F8FFF71E
:1013B000FFFEF0BCBDE8008C20F07F4780EA030010
:1013C00023F07F4C07EB0C03A3F57C5300F00040A7
:1013D000A3F1FE0392F0000F00F0B38095F0000F30
:1013E00000F077802DE901494FEA11404FEA144699
:1013F00021EA004800FB06FC24EA064708FB06F643
:1014000007FB08F800FB07F718EB06484CEB164CF7
:101410004FEA124B18EB07484FEA15464CEB1740C2
:1014200022EA0B4E0BFB06FC25EA06470EFB06F6EE
:1014300007FB0EFE0BFB07F71EEB064E4CEB164CA4
:101440004FF000061EEB074E4CEB174B18EB0B084A
:1014500040F1000018EB0E0B58EB000840F10000C3
:101460008F1A4FF000013CBFC943661B14BFB5EB98
:10147000040C00213CBFC943F61B4FEA17444EEA57
:101480008E0E27EA04454FEA1C4704FB07622CEA4C
:10149000074C05FB07F70CFB05F604FB0CFC16EBF1
:1014A000074642EB174216EB0C4642EB1C421BEB85
:1014B000060658EB0202414146EA9E0601D5BDE808
:1014C0000189B619524141EB0101A3F10103BDE8C5
:1014D00001894FEA14454FEA114724EA054621EAFB
:1014E000074C05FB07F406FB07F70CFB06F105FBB1
:1014F0000CFC11EB074144EB17444FEA124711EB88
:101500000C4144EB1C4422EA074C05FB07F206FBA6
:1015100007F70CFB06F605FB0CFC16EB074642EB47
:10152000174216EB0C4642EB1C456A1854F10001B9
:1015300048BF7047B619524141EB0101A3F10103C5
:10154000704795F0000F37D04FEA11424FEA144729
:1015500021EA024624EA074C02FB07F106FB07F7E3
:101560000CFB06F402FB0CFC14EB074441EB1741A7
:101570004FEA154714EB0C4441EB1C4125EA074C9C
:1015800002FB07F506FB07F70CFB06F602FB0CFC5B
:1015900016EB074645EB174516EB0C4645EB1C4290
:1015A000121951F1000148BF7047B619524141EB81
:1015B0000101A3F1010370474FEA14454FEA1147B7
:1015C00024EA054621EA074C05FB07F106FB07F76D
:1015D0000CFB06F24FF0000605FB0CFC12EB074279
:1015E00041EB174112EB0C4251EB1C4148BF7047D5
:1015F000921841EB0101A3F1010370470448006810
:1016000000F0010010B1012001490860704700009E
:10161000140401400448006800F0020010B10220E8
:1016200001490860704700001404014010B50C48DF
:10163000006800F0040090B10321002000F02CFDB0
:1016400028B108480068401E0649086004E00548C3
:101650000068401C0349086004200149086010BD6F
:10166000140401402C0000200448006800F0080029
:1016700010B10820014908607047000014040140BF
:1016800010B50C48006800F0100090B10521002052
:1016900000F002FD28B108480068401C06490860B7
:1016A00004E005480068401E034908601020014915
:1016B000086010BD14040140300000201548006887
:1016C00000F0200010B12020124908601148006885
:1016D00000F0400010B140200E4908600D4800683D
:1016E00000F0800010B180200A49086009480068B5
:1016F00000F4807018B14FF4807006490860054806
:10170000006800F4007018B14FF4007001490860DF
:10171000704700001404014010B502220A21012084
:1017200000F0CCFC02220B21012000F0C7FC0122BA
:101730000B21104600F094FD01220A21104600F012
:101740008FFD10BD014607238B431A02054B186815
:101750004FF6FF0318401043034B1843014B18602A
:10176000704700000CED00E00000FA0570B505467A
:101770000C460420FFF7E6FF0E48005D00F001066E
:1017800046EA0510C1B20B4801552046E21704EBAA
:10179000D2625211A4EB421301229A402146E31770
:1017A00004EBD3635B119B0003F1E023C3F800213A
:1017B00070BD000000E400E070B500240EE00021E0
:1017C000204600F0C7F8002504E0002000F0E3F810
:1017D000681CC5B2802DF8DB601CC4B2082CEEDB9F
:1017E00070BD10B502220821012000F067FC022222
:1017F0000921012000F062FC01220821104600F0BE
:101800002FFD01220921104600F02AFD10BD70B500
:101810000546002413E08020204100EA050209214A
:10182000012000F01DFD01220821104600F018FDE6
:1018300000220821012000F013FD601CC4B2082C16
:10184000E9DB01220821104600F00AFD00220821F0
:10185000012000F005FD70BD10B5012209211046E0
:1018600000F0FEFC01220821104600F0F9FC0022E5
:101870000921012000F0F4FC00220821012000F0E1
:10188000EFFC10BD10B500220921012000F0E8FC9A
:1018900001220821104600F0E3FC01220921104634
:1018A00000F0DEFC10BD70B5002406E0002500E06D
:1018B0006D1CB5F57A7FFBD3641CB4F57A7FF5D344
:1018C000FFF78FFFAE2000F056F8D52000F053F858
:1018D000802000F050F8A82000F04DF83F2000F0E4
:1018E0004AF8D32000F047F8002000F044F84020E8
:1018F00000F041F8A12000F03EF8C82000F03BF8CD
:10190000DA2000F038F8122000F035F8812000F0DD
:1019100032F8CF2000F02FF8D92000F02CF8F12079
:1019200000F029F8DB2000F026F8302000F023F842
:10193000A42000F020F8A62000F01DF88D2000F073
:101940001AF8142000F017F8AF2000F014F8FFF791
:1019500033FF70BD70B505460C4645F0B00000F091
:101960000AF8102141EA141000F005F804F00F0005
:1019700000F001F870BD10B50446FFF76DFF782048
:10198000FFF745FF0020FFF742FF2046FFF73FFF2C
:10199000FFF778FF10BD10B50446FFF75DFF782014
:1019A000FFF735FF4020FFF732FF2046FFF72FFFFC
:1019B000FFF768FF10BD10B500F002F810BD000081
:1019C0000CB50020019000903348006840F480304E
:1019D0003149086000BF3048006800F400300090D2
:1019E0000198401C0190009818B90198B0F5A06FBB
:1019F000F1D12948006800F4003010B101200090B6
:101A000001E0002000900098012843D1234800689D
:101A100040F01000214908600846006820F00300EB
:101A200008600846006840F0020008601A484068F4
:101A3000194948600846406848600846406840F4D4
:101A4000806048600846406820F47C104860084682
:101A5000406840F4E81048600846006840F0807034
:101A6000086000BF0C48006800F000700028F9D042
:101A70000948406820F0030007494860084640686C
:101A800040F00200486000BF0348406800F00C00CE
:101A90000828F9D10CBD00000010024000200240CF
:101AA00010B51348006840F001001149086008466D
:101AB0004068104908400E494860084600680E49D1
:101AC00008400B4908600846006820F48020086040
:101AD0000846406820F4FE0048604FF41F0088600C
:101AE000FFF769FF4FF000600449086010BD000077
:101AF000001002400000FFF8FFFFF6FE08ED00E0D6
:101B00004FF08040008A00F0010038B14FF0804073
:101B1000008A20F001004FF08041088270470000E9
:101B200010B50748008800F0010038B100F0F4FC5F
:101B30000348008820F001000149088010BD000022
:101B4000100400400548008800F0010028B1034857
:101B5000008820F00100014908807047100800400B
:101B600010B52348008800F0200000283ED0002057
:101B700000F07AFF04461F48007858B9402C2ED157
:101B80001D48007858BB01201A49087000201B49E5
:101B9000087024E01748007801280FD10D2C03D1DC
:101BA0000220144908701AE0154814490978445471
:101BB00012480078401C1149087010E00D48007868
:101BC00002280CD10A2C0AD100200A4908700021F1
:101BD0000B480A4A127881540120074908700448CA
:101BE000008820F020000249088000BF10BD0000DE
:101BF0000038014039000020380000203A00002061
:101C00003C0100200548008800F0200028B103486E
:101C1000008820F0200001490880704700440040FF
:101C20000548008800F0200028B10348008820F013
:101C300020000149088070470048004040F201320E
:101C400000204FF0E04102F087B80000024A002077
:101C5000110702F081B8000001FDFFFF10B5044636
:101C6000D1E9000100F002F8206010BDF8B504468B
:101C70000D466A4600F0E4F900987E300090002896
:101C80001EDC002213462046294601F0C7F917D072
:101C9000002140F608004FF0000006462046294685
:101CA00000F076FF044640F6080006EA00014FF017
:101CB000000034F0004004BF0220FEF79DFA29E046
:101CC0000098FF2828DB002108464FF0000000F4B0
:101CD0004006002213462046294601F03FFB8CBFF8
:101CE000002501250220FEF787FA4FF0FF4446B198
:101CF000002D0CBF4FF400004FF48000B04218BF1D
:101D0000084C042108464FF00000002D04BF84F069
:101D10000040F8BD2046F8BD20462946BDE8F84001
:101D200000F036BFFFFF7F7F10B504460A46D4E9B6
:101D30000003194600F0B4FAC4E9000110BD3038C0
:101D40000A2801D2012070470020704700BF704769
:101D500030B583B00446FEF74AFA05460020CDE9C7
:101D60000000024621466846FEF76AFA2846FEF75A
:101D700043FADDE9000103B030BD00B5034603E0DE
:101D80004FF47A7000F005F8181EA3F10103F7D1A3
:101D900000BD00EBC001C9004FF0E02251610021FD
:101DA00091610521116100BF4FF0E021096901F443
:101DB00080310029F8D004214FF0E02211617047F2
:101DC00010B500220121062000F010F801220321A5
:101DD000002000F073F9002201210C2000F006F829
:101DE00001220521002000F069F910BD2DE9F0471E
:101DF00004460E461746032194FBF1F0C11700EB91
:101E000091718910A0EB810189064FEA11680321C5
:101E100094FBF1F0C11700EB9171C1F387052046E7
:101E200000F06AF83148806940F001002F4988616C
:101E30004FEAB13050F825000F2101FA08F188432C
:101E40002B4941F82500032094FBF0F100FB1140E1
:101E500088B1032094FBF0F100FB1140401E0121EA
:101E600001FA00F000FA08F0214951F82510014369
:101E70001F4840F82510032094FBF0F10120884012
:101E80001C49096808431B49086066B9032094FB94
:101E9000F0F10120884017490831096808431549C5
:101EA000083108600BE0032094FBF0F1012088402A
:101EB00010490C31096808430E490C3108600320B1
:101EC00094FBF0F004280ADC032094FBF0F0801D62
:101ED00000F0FF0949463846FFF748FC03E01721A8
:101EE0003846FFF743FCBDE8F087000000100240D1
:101EF000080001400004014010B50446182C12D21D
:101F0000DFE804F00C12181E242A30363C42484EFA
:101F1000545A60666C72787E848A90960122002101
:101F2000084600F0CBF889E001220021104600F0BD
:101F3000C5F883E001220021022000F0BFF87DE017
:101F400001221146002000F0B9F877E00122114685
:101F5000104600F0B3F871E001221146022000F0B3
:101F6000ADF86BE001220221002000F0A7F865E047
:101F700001220221104600F0A1F85FE001220221B7
:101F8000084600F09BF859E001220321002000F0F0
:101F900095F853E001220321104600F08FF84DE040
:101FA00001220321022000F089F847E001220421E8
:101FB000002000F083F841E001220421104600F0E7
:101FC0007DF83BE001220421022000F077F835E0A3
:101FD00001220521002000F071F82FE001220521E7
:101FE000104600F06BF829E001220521022000F0E4
:101FF00065F823E001220621002000F05FF81DE0D3
:1020000001220621104600F059F817E001220621AE
:10201000022000F053F811E001220721002000F017
:102020004DF80BE001220721104600F047F805E0CB
:1020300001220721022000F041F800BF00BF10BDBF
:1020400010B5144600222260114A21F00043934249
:10205000A8BF10BD53EA000208BF10BDB3F5801F32
:10206000A8BF226807DA362201F076FE6FF035024B
:1020700021F000432260DFF81CC06FF31E510CEB0F
:1020800023531A4441F0FF5141F00051226010BD2A
:102090000000F07F02FCFFFF10B50246064850F832
:1020A0002200806801248C4000EA04030BB1012067
:1020B00010BD0020FCE700000000002070B5654C5A
:1020C000A469042585402C43624DAC6108295DDA82
:1020D000614C54F8204024688E000F25B540AC4375
:1020E0005D4D55F820502C601AB1032A01D0022A08
:1020F0000FD10124944044F003048D00AC40564DB0
:1021000055F820502D682C43534D55F820502C6025
:102110009FE0012A01D0042A2AD14F4C54F82040D4
:1021200024688E000825B5402C434B4D55F82050AF
:102130002C60012A0ED1484C54F82040E468012557
:102140008D4024EA050301248C401C43424D55F880
:102150002050EC60042A7CD13F4C54F82040E568C4
:1021600001248C40A5433C4C54F82040E56070E0CD
:10217000042494408D00AC40374D55F820502D6814
:102180002C43354D55F820502C6062E0324C54F809
:1021900020406468A1F10805AE000F25B540AC43AE
:1021A0002D4D55F820506C601AB1032A01D0022A37
:1021B00011D10124944044F00304A1F10805AD00BD
:1021C000AC40254D55F820506D682C43224D55F8F4
:1021D00020506C603DE0012A01D0042A2AD11E4C17
:1021E00054F820406468A1F10805AE000825B54008
:1021F0002C43194D55F820506C60012A0CD1174C16
:10220000256801248C4025EA040301248C401C43EA
:10221000114D55F82050EC60042A1AD10E4C54F898
:102220002040E46801258D40AC430B4D55F820500B
:10223000EC600EE004249440A1F10805AD00AC4030
:10224000054D55F820506D682C43034D55F820502E
:102250006C6070BD00100240000000200C080140BE
:1022600030B57AB10D4C54F82040E46801258D401A
:1022700024EA050301248C401C43084D55F82050E6
:10228000EC600AE0054C54F82040E46801258D40DC
:10229000AC43024D55F82050EC6030BD00000020EA
:1022A0002DE9F04106460C4640F2FF75174635EA27
:1022B00014502BD000221346304600F0AFFE25D03C
:1022C0003A463046214601F047FD06460C4635EABF
:1022D000145010D000221346304600F09FFE15D156
:1022E0000220FDF789FFFFF7B1FC0A46214662F3A1
:1022F0001E01BDE8F0810220FDF77EFFFFF79EFC86
:102300000A46214662F31E01BDE8F08130462146AF
:10231000BDE8F08108B542F21070FFF72EFDFFF71F
:10232000C2FA00F081F8FFF74BFD00224FF416517E
:10233000104600F0A3FB1848184B1A4601210090E4
:10234000174800F01DF91448144B1A46012100905B
:10235000144800F015F94FF07C5000234FF08042F4
:1023600019460090104800F00BF91048104B4FF040
:102370007F52012100900F4800F002F9FFF7CCF9DD
:10238000002211461620FFF731FD00220A2101200C
:1023900000F0ACFA00BFFEE70000A04000002041C2
:1023A0003C0000207C000020BC000020CDCCCC3DB7
:1023B000CDCCCC3EFC00002010B50446A2B20021DA
:1023C000084600F0F3F90948027806210020FFF7DB
:1023D00047FF0648007808B9012000E000200246C7
:1023E00007210020FFF73CFF10BD0000280000205F
:1023F00010B50446A2B20121002000F0D7F9094827
:10240000027800210120FFF72BFF0648007808B969
:10241000012000E00020024601210846FFF720FFCE
:1024200010BD00002900002010B54FF47A72002181
:10243000084600F0ADF8002206211046FFF73EFEE8
:10244000002207211046FFF739FE4FF47A7201216E
:10245000002000F09DF8002211460120FFF72EFE1B
:10246000002201210846FFF729FE10BD2DE9F047A3
:102470000446E068A0602169E160D4E9000101F050
:10248000C1FB2061606B2063A16B61634FF08040F2
:10249000E16801F0AFFA8146216901F0A8FB8046AE
:1024A000A16801F0A7F80746E16901F0A3FA054623
:1024B0002169A06901F09EFA8146D4E9031001F078
:1024C000A1FB8246616901F095FA8046616B01F0DB
:1024D00091F80746494601F08DF80646294601F075
:1024E00089F8A063A06B01F059F821F0004105467E
:1024F0000022074B00F032FF07D2A06B00F0E0F99A
:102500000546044901F076FAA063BDE8F0870000B3
:102510000080514000008C422DE9F0411448FFF743
:1025200017FC054600F034FB04461249204601F032
:1025300069FB0746384601F031F821F000410546B5
:1025400000220D4B00F00AFF05D20020FFF734FFF8
:102550000020FFF74DFF074808490860084644601F
:10256000FFF784FF054800F0F9F9BDE8F0810000AD
:102570003C0100200000A04300406F40FC00002010
:1025800010B5029CC16342618361C46110BD00004B
:102590002DE9F04104460D4616462846E91705EB9D
:1025A00091718910A5EB8101491CCFB25148C069D6
:1025B0000121A14008434F49C8614F4890FBF6F004
:1025C000401E4E4951F82410888547204B4951F848
:1025D00024100885284600F093F8012F06D0022F1A
:1025E0001ED0032F36D0042F69D14DE0434850F858
:1025F0002400008B40F06000404951F8241008830B
:102600003E4850F82400008B40F008003B4951F848
:10261000241008830020394951F8241088864EE0A0
:10262000364850F82400008B40F4C040334951F83C
:1026300024100883314850F82400008B40F40060D7
:102640002E4951F82410088300202C4951F82410F9
:10265000088734E0294850F82400808B40F060005F
:10266000264951F824108883244850F82400808B90
:1026700040F00800214951F82410888300201F49A8
:1026800051F8241088871AE01C4850F82400808BE9
:1026900040F4C040194951F824108883174850F875
:1026A0002400808B40F40060144951F82410888382
:1026B0000020124951F82410A1F8400000BF00BFCB
:1026C0000E4850F82400008C791E8A0001219140A8
:1026D00008430A4951F824100884084850F8240097
:1026E000008840F08100054951F824100880BDE8B9
:1026F000F08100000010024040420F000C0000205A
:1027000010B504460C2C4FD2DFE804F0060C12186A
:102710001E242A30363C4248032200210846FFF797
:10272000CDFC41E0032201210020FFF7C7FC3BE084
:10273000032202210020FFF7C1FC35E003221146ED
:102740000020FFF7BBFC2FE0032206210020FFF74B
:10275000B5FC29E0032207210020FFF7AFFC23E0AE
:10276000032200210120FFF7A9FC1DE00322012123
:102770000846FFF7A3FC17E0032206210120FFF71C
:102780009DFC11E0032207210120FFF797FC0BE0DD
:10279000032208210120FFF791FC05E00322092113
:1027A0000120FFF78BFC00BF00BF10BD2DE9F84FE3
:1027B00004460D4617462846E91705EB9171891026
:1027C000A5EB8101491C01F0FF084CF25030874213
:1027D00000DB0746384850F82400868DB8F1010F19
:1027E00009D0B8F1020F1DD0B8F1030F31D0B8F104
:1027F000040F5DD144E0701C01F09CF8834638461C
:1028000001F0B0F82D49009000F062FF8246594671
:1028100001F0F0F8814601F06DF8274951F82410D5
:10282000888645E0701C01F085F80090384601F07C
:1028300099F88346214900F04BFF8246009901F048
:10284000D9F8814601F056F81B4951F82410088741
:102850002EE0701C01F06EF80090384601F082F80E
:102860008346164900F034FF8246009901F0C2F811
:10287000814601F03FF8104951F82410888717E08D
:10288000701C01F057F80090384601F06BF8834651
:102890000A4900F01DFF8246009901F0ABF881461D
:1028A00001F028F8044951F82410A1F8400000BFB5
:1028B00000BFBDE8F88F00000C0000200050434727
:1028C00010B504460021204601F060F902D24FF015
:1028D0007E5010BD0021204601F058F801D2024878
:1028E000F7E70020F5E70000000080BF70B5044660
:1028F0000D4616461748C0690121A14008431549F5
:10290000C86105EB85004000401E134951F82410B2
:10291000888541F61F40104951F8241008850E485B
:1029200050F82400008840F001000B4951F82410B1
:102930000880094850F82400808940F001000649C9
:1029400051F82410888104F11C00C1B23046FEF712
:102950000DFF70BD001002400C00002070B5044651
:102960000021A06B01F012F90DD21E20FFF740FDEF
:102970001448A16B00F03EFE064600F09FFF05469E
:10298000FFF71AFD1DE00021A06B00F0FFFF0DD244
:102990001E20FFF711FD0B48A16B01F033F906462D
:1029A00000F08CFF0546FFF723FD0AE00021A06B35
:1029B00000F050FF05D11E20FFF7FEFC1E20FFF7A0
:1029C00017FD70BD0000F0412DE9F04F89B0814640
:1029D0008A46B9F1000F01D11F4C00E01F4C4FEAAD
:1029E0000A1094FBF0FB584600F06BFBCDE90401A4
:1029F000504600F04FFB07460022194B00F0B0FB99
:102A000005460E46204600F095FF074600F0C6FD3D
:102A10002A463346CDE9000100F0A8F9CDE90201CC
:102A2000DDE9042300F0D0FCCDE9060100F0B0F8A8
:102A300008904FF08341089800F0DCFF0890089858
:102A400000F058FF00EB0B10064951F829100881DF
:102A500009B0BDE8F08F000000A24A040051250231
:102A600000003040180000200146034A52F821209F
:102A70009288D0B2704700001800002070B504465C
:102A80000E46154634B91448806940F48040124916
:102A9000886108E01048C06904F1100101228A40F1
:102AA00010430D49C861204600F01AF8314620460F
:102AB000FFF78AFF094850F82400808942F22C0170
:102AC0000843064951F82410888104F12500C1B259
:102AD0002846FEF74BFE70BD001002401800002093
:102AE00010B5044624B1012C0DD0022C21D115E0E3
:102AF000032209210020FFF7E1FA04220A21002025
:102B0000FFF7DCFA15E0032202210020FFF7D6FAD6
:102B1000042203210020FFF7D1FA0AE003220A2150
:102B20000120FFF7CBFA04220B210120FFF7C6FAA0
:102B300000BF00BF10BD000010B500290AD0087802
:102B4000002807D005487844FDF794FE002801D0FE
:102B5000002010BD0248784410BD00006E13000034
:102B60006613000010B500290AD00878002807D0A5
:102B700005487844FDF77EFE002801D0002010BDF6
:102B80000248784410BD00005E1300005613000098
:102B900021F00042A2F16052B2F5801F01F0004323
:102BA00028BFD2F17F6C0BD95FEA001C43EAC20256
:102BB00042EB507018BF704728BF20F001007047EB
:102BC000B2F5801FBCBF184670474FEA410C1CF598
:102BD000001F02D2084600F0D4BF70B500F06AFBB7
:102BE00000000089FFF7F6BF4FF00040A0F580001D
:102BF0007047000010B591EA030F48BF83F000430F
:102C000000F1EA83841A71EB030C05D2121943EB2D
:102C10000C03001B61EB0C01DFF824E14FEA1154B7
:102C2000A4EB135C1EEA430F18BF9EEA445F73D007
:102C300023EA0E03DCF1200E21EA045143F4801351
:102C400032D322FA0CFE10EB0E0023FA0CFE41EBFD
:102C50000E01CCF1200E03FA0EFE10EB0E0051F126
:102C60000001B1F5801FCCF1200E32D201EB0451EE
:102C700012FA0EF2BDE8104058BF7047401C38BF32
:102C80005FEA420218BF7047002814BF20F001001D
:102C900041F100014FEA410313F5001F38BF7047AF
:102CA000A1F1C04100F054BB012A43EB0302ACF197
:102CB000200CDCF11F0E32BF4FF0000E23FA0CF394
:102CC00010EB030041EB0451B4EB115FD0D0A1EB4A
:102CD000045101F5801149085FEA300001EB04510D
:102CE0000ED350F1000038BF12FA0EFE08D1BDE835
:102CF0001040C9E7401C38BF5FEA4202CAD1C3E7AF
:102D0000BDE810404FEA410313F5001F38BF70477C
:102D1000A1F1C04100F01CBB9EEA445F08D011EA5B
:102D20005E0FBDE8104004BF01F000410020704775
:102D3000BDE8104070B500F0BDFA00BF64FBBE3EB8
:102D40000000E0FF02494FF0000000F0D3BF00BFD9
:102D50000000F87F491058BFC1F140415B1058BFD7
:102D6000C3F140438B42EFF3008070472DE9C0412F
:102D700030B4DFF8A0C23CEA111418BF3CEA1314C7
:102D800000F0EC8081EA03051CEA111444EAD574D2
:102D900018BF1CEA131500F0C780A4EB05044FF020
:102DA000004545EAC12145EAC32341EA505143EABF
:102DB000525304F17F74994204F500344FEAC02065
:102DC0004FEAC22208BF904200F09C804FEA136590
:102DD0000FF24016765D4FEA134506FB05F7C7F183
:102DE000807706FB07F74FEAD737A7FB03687642E1
:102DF000C8F58038A7FB06CE38BFA8F1010807FB4D
:102E000008E64FF0000EA6FB028CE6FB03CEDCF1D9
:102E1000000CCEF1004E38BFAEF1010EA6FB0C58EF
:102E20004FF000074FF00005E6FB0E87A1FB08C638
:102E3000A0FB07CE16EB0E0645F10005E1FB07658A
:102E400015F1E04E7EBFA4F580345FEA46066D4181
:102E500016F1800745F100054FEA17274FEA06668D
:102E600047EA0567A6F1DE46B6F1805F4FEA152511
:102E70001FD9384624F0010C05EBC471BCF1FE6F7C
:102E800001EB0C1102D8F0BCBDE8008124425CBF0C
:102E900001F5801E9EEAC47F02D4F0BCBDE800812B
:102EA000244238D4F0BCA1F1C041BDE8004100F09B
:102EB0004FBA4FEAD22242EA43524FEAD323A7FB4A
:102EC00002864FEAD02040EA415007FB03661EEA23
:102ED0000E0F4FEAD12105FB026658BFA6EB005644
:102EE000B6EB00564FEA520E4EEAC37E18EB0E0EBA
:102EF00056EB530EBDD518EB02085E417F1C55F111
:102F00000005B6E74FF480154FF000074FF00006BC
:102F10004FF00008ADE7F0BC4FF0000001F1C041F8
:102F200001F00041BDE8008111EA0C1F0CEA131505
:102F300000D00CE013EA0C1F00F025804FF00000D9
:102F4000F0BC81EA030101F00041BDE80081F0BC62
:102F5000BDE8004181EA030100F0FAB9F0BCBDE828
:102F6000004170B500F0A6F9097EFC3E00F007B8FC
:102F700081EA03014FF0000001F00041704781EA4F
:102F8000030100F0E5B9F0BCBDE800414FF00000DE
:102F900021497047FFFDFBF9F7F5F4F2F0EEEDEB98
:102FA000E9E8E6E4E3E1E0DEDDDBDAD8D7D5D4D347
:102FB000D1D0CFCDCCCBCAC8C7C6C5C4C2C1C0BF93
:102FC000BEBDBCBBBAB9B8B7B6B5B4B3B2B1B0AF99
:102FD000AEADACABAAA9A8A8A7A6A5A4A3A3A2A17D
:102FE000A09F9F9E9D9C9C9B9A9999989797969538
:102FF00095949393929191908F8F8E8E8D8C8C8BD4
:103000008B8A89898888878786858584848383825B
:10301000828181800000FF070000F87F51EA030CE5
:1030200017D41CF5801F58BFBCF5801F00F1068027
:10303000994218BF704708BF9042704707D711F5F3
:10304000801F58BF13F5801F19D4994270478942D9
:1030500070471CF5801F08D5BCF5801FF7D58B4243
:1030600018BF704708BF824270474FF4001C1CEB2A
:10307000410F38BF1CEB430F01D28B42704770B534
:1030800000F018F9922449004FF000514FF080539E
:10309000FFF760BE10F0004248BF4042B0FA80F334
:1030A00010FA03F10AD0C3F11D0303F580634FEA60
:1030B000415002EB035202EBD12170474FF0000068
:1030C0007047B0FA80F310FA03F10AD0C3F11D0380
:1030D00003F580634FEA41504FEA035202EBD121DE
:1030E00070474FF00000704751EA030C17D41CF5ED
:1030F000801F58BFBCF5801F00F10680994218BFA1
:10310000704708BF9042704707D711F5801F58BF1E
:1031100013F5801F19D499427047894270471CF5F6
:10312000801F08D5BCF5801FF7D58B4218BF7047AC
:1031300008BF824270474FF4001C1CEB410F38BFA0
:103140001CEB430F01D28B42704770B500F0B2F810
:10315000922449004FF000514FF08053FFF7FABD21
:10316000DFF848C170B51CEA111E1EBF1CEA13151A
:103170009EEA0C0F95EA0C0F00F06F8081EA0304C1
:1031800023EA4C134EEAD47E21EA4C1141F480111B
:1031900043F48013AE44A1FB024CA0FB0365AEF1E7
:1031A0007F7E361955EB0C05A1FB034C4CF1000357
:1031B000A0FB021C16EB0C06654153F1000309420B
:1031C00018BF46F0010613F4007F0BD14FEA03311C
:1031D0004FEA0530340341EA155140EA16506FF0CA
:1031E00003020AE04FEAC3214FEAC520F40241EA94
:1031F000555140EA56506FF0020202EB2E4201EBAD
:10320000025585EACE710AD05FEA440C18BF24F05B
:10321000004450F1000041F1000120EAD47040F276
:10322000FE7C624500D270BDA84214BF4FF08044BE
:103230004FF04044002E08BF0024BEF1806FA8BFAD
:10324000A1F1C041BDE8704080F282804FF00000E3
:1032500001F1C04101F0004170479EEA0C0F0CEAF9
:10326000131518BF95EA0C0F06D04FF0000081EA45
:10327000030E0EF0004170BD00F01CF88900013E05
:1032800000F007B800F009B84FEA430C5FEA5C5C55
:1032900008D081EA030100F05BB84FEA410C5FEA15
:1032A0005C5CF6D14FF00000014970470000FF0759
:1032B0000000F87F0EF1020E2EF0030E5EF8046B94
:1032C000364205D4012A43EB030515F5001F12D839
:1032D000012841EB010C1CF5001F0CD80ED14FEA60
:1032E000D17C15F5001F0CEB4C0C0CF1020C08BF47
:1032F0004CEBD37C04E04FF0080C01E04FEAD37CA8
:103300000CEB4C0526FA05F606F00706B6F1040CA0
:1033100006D20EEB860CBDE870404CF0010C604705
:10332000DFE80CF0090B02024FF000414FF0000003
:10333000A1F5002170BD19461046012851EB01048A
:1033400018BFD4F5001484BF002001F0004170BD07
:103350000808A0F500114FEA3101704753EA010C4B
:1033600017D41CF5801F58BFBCF5801F00F10680E4
:103370008B4218BF704708BF8242704707D713F5CA
:10338000801F58BF11F5801F19D48B4270479B4294
:1033900070471CF5801F08D5BCF5801FF7D59942F2
:1033A00018BF704708BF904270474FF4001C1CEBD9
:1033B000430F38BF1CEB410F01D2994270470FB445
:1033C0000CBC03BCFFF7C1BE10B591EA030F48BFA8
:1033D00083F000433FF516AC841A71EB030C07D25F
:1033E00012198CF0004C43EB0C03001B61EB0C0139
:1033F000DFF8A4E14FEA1154A4EB135C1EEA430F7B
:1034000018BF9EEA445F00F0B08023EA6E03524288
:1034100021EA0451C3EB6E0338BF5B1EDCF1200EC2
:1034200025D322FA0CFE10EB0E0043FA0CFE41EB02
:103430000E01CCF1200E03FA0EFE10EB0E0051F13E
:103440000001CCF1200E29D412FA0EF201EB045146
:10345000BDE8104058BF7047401C1CBFB2F1004F80
:10346000704700280CBF491C20F00100704712EB88
:10347000020E43EB030218BF4FF0010E4EEA420268
:10348000ACF1200CDCF11E0E54D943FA0CFE10EB0B
:103490000E0051F1FF31CCF11E0ED5D50EF1010E0B
:1034A00012FA0EFE404141EB010101EB445C5FEA80
:1034B0005C5C10D910EBDE7001EB045138BFBEF13B
:1034C000004FBDE8104018BF704700280CBF491CD2
:1034D00020F00100704730D24FEAD42C11F50011D2
:1034E00024F400641BD0B1FA81F20B3AA41AA41E92
:1034F000D2F12003914030FA03F31943904001EBDD
:10350000CC71002C01EB0451BDE81040A8BF7047FE
:1035100001F1C0414FF0000001F000417047B0FAE6
:1035200080F310FA03F100D110BDE41A173C4805EE
:10353000C90AE4E701EB045110BD491001EB045145
:10354000BDE810404FEA300002E04FF00001704744
:103550004A0008BF0042F8D0B2F5001F28BF7047EC
:1035600001F000414FF0000070479EEA445F07D031
:1035700011EA5E0FBDE8104004BF00210020704733
:10358000BDE8104070B5FFF795FE00BF40DFF63E86
:1035900083F00041104670470000E0FF43004FEA0F
:1035A000D30C4FEA3C0C43401FBF40070CF1605165
:1035B00013F0FE4F70471CF0006F03D100200CF099
:1035C000004170470CF0004343EA507010B540EAE8
:1035D000CC0000F090FA00BF000000924FEA00011A
:1035E000FFF7B6BE4FF000414FF00000A1F50021FB
:1035F0007047000090EA010F48BF81F0004100F1E0
:103600000883421A3CBF801A89184FEAD0524FF003
:103610007F4C1CEA410FA2EBD15318BF9CEA026F0A
:1036200000F03B804FF0004C4CEA00204CEA0121B6
:1036300021FA03FC10EB0C0C1ED202F1FF325FEA00
:103640001C2040EBC25038BF70471CF07F0F4FEA80
:10365000400C18BFBCF17F4F38BF7047C3F1200347
:10366000994008BF20F00100BCF17F4F38BF704780
:10367000A0F1C04000F085BA4FEA3C00000A40EBE0
:10368000C25028BF1CF0FF0F4FEA400CE6D018BF15
:10369000BCF17F4F38BF7047EAE79CEA026F05D064
:1036A00010EA5C0F08BF00F00040704710B500F052
:1036B00022FA00BF64FBBE3E401058BFC0F140403C
:1036C000491058BFC1F140418142EFF3008070477B
:1036D0004FF47F0C1CEAD0121EBF1CEAD11392EAF1
:1036E0000C0F93EA0C0F00F0858090EA010F48BFA1
:1036F00042F4807240F4000C41F400002CF07F4151
:1037000020F07F4000B58142A2EB03020FF2081CBB
:10371000ACEB504EC0F100009EF800E04FEA4E0EB8
:1037200000FB0EFC38BF49004FEA2C1C02F5FA02E0
:103730000CFB0EF34FEACE1E4FEA112C4FEAC121CB
:103740000EEB635E42EB22420EFB0CFC4FEA1C5375
:1037500000FB03114FEA112C4FEA01310EFB0CFC68
:103760004FEADC4C00FB0C11C14228BF09184CEB9E
:1037700003335DF804EB10EB410143EBC250B2F5AB
:103780007C0F38BF704729D512F0F00F1CBF00F135
:10379000C04000F0004070470081828384858687A6
:1037A00088898B8C8D8E8F919293959697999A9C00
:1037B0009D9FA0A2A3A5A7A8AAACAEB0B2B3B5B76F
:1037C000B9BCBEC0C2C5C7C9CCCED1D4D7D9DCDF45
:1037D000E2E6E9ECF0F3F7FAFE0000004FEA400CF5
:1037E0000CF1807CBCF17E4F28BF7047B0F1C04027
:1037F00000F0C7B990EA010F0CEAD11348BF42F4B8
:103800008072624538BF634507D213F47F0F16D02C
:1038100080EA010000F00040704710B500F06BF93D
:10382000097EFC3E00F005B880EA010000F000408F
:10383000704780EA010000F0004000F0A2B912F4E5
:103840007F0F04BF0248704780EA010000F099B979
:103850000000C07F50EA010C00F113801CF5000F3E
:1038600058BFBCF5000F01D48842704707D710F548
:10387000000F58BF11F5000F15D4884270478942D8
:1038800070471CF5000F04D5BCF5000FF7D5814239
:1038900070474FF0807C1CEB400F38BF1CEB410F92
:1038A00001D28142704710B500F025F992244900F9
:1038B0004FF000504FF08051FFF7FEBE41000B0E5D
:1038C000D3F19E0208D950F400034FEA032323FAF0
:1038D00002F048BF4042704710B500F00CF900BF3D
:1038E00049922480002070476FF0004282EA200055
:1038F00070470000C10DD1F19E0206DB4FEA0023A4
:1039000043F0004323FA02F07047004207D54FEA24
:103910004001B1F1FE4F02D24FF00000704710B5E8
:1039200000F0E9F849922480002070476FEA2000F7
:103930007047000010F0004148BF4042B0FA80F3E9
:1039400010FA03F2C3F19D030BD051EAC35101EB0E
:103950001220530638BF704700F1010008BF20F065
:1039600001007047B0FA80F310FA03F2C3F19D032F
:103970000AD0D90501EB1220530638BF704700F179
:10398000010008BF20F001007047000050EA010C60
:1039900000F113801CF5000F58BFBCF5000F01D4D7
:1039A0008842704707D710F5000F58BF11F5000F78
:1039B00015D488427047894270471CF5000F04D522
:1039C000BCF5000FF7D5814270474FF0807C1CEBAF
:1039D000400F38BF1CEB410F01D28142704710B538
:1039E00000F089F8922449004FF000504FF08051C8
:1039F000FFF762BE4FF47F0C1CEAD0121EBF1CEA18
:103A0000D11392EA0C0F93EA0C0F00F0478090EA72
:103A1000010F48BF42F480724FF0004C4CEA002086
:103A20004CEA012102EB0302A0FB0113A2F5000204
:103A3000002918BF43F001035B0028BF4FEA33039E
:103A400042EB22425FEA132C4CEBC2502EBFBCEB80
:103A5000436FB2F57C0F70474FEA036CBCF1004F27
:103A600008BF20F00100B2F57C0F38BF70470BD5BE
:103A700082F0FF0212F5803FC8BF704700F1C040DE
:103A8000D8BF00F00040704700F5000C5FEA4C0C16
:103A900048BF7047B0F1C04000F073B890EA010F22
:103AA0000CEAD11348BF42F48072624538BF6345C7
:103AB00004D280EA010000F00040704710B500F029
:103AC0001AF800BF8900013E00F007B800F009B8FD
:103AD0005FEA410C5FEA1C6C08D080EA010000F04C
:103AE00050B85FEA400C5FEA1C6CF6D14FF0004022
:103AF000A0F5800070470EF1020E2EF0030E5EF866
:103B0000044B244204D44FEA4102B2F17F4F11D852
:103B10004FEA4003B3F17F4F0CD80ED14FEAD07C6F
:103B2000B2F17F4F0CEB4C0C0CF1020C08BF4CEBCC
:103B3000D17C04E04FF0080C01E04FEAD17C0CEBA3
:103B40004C0324FA03F404F00704B4F1040C06D285
:103B50000EEB840CBDE810404CF0010C6047DFE830
:103B60000CF0070802024FF00040A0F5800010BDE5
:103B70000846420018BFD2F1807288BF00F00040B2
:103B800010BDFF2141EAD050C005704751EA000C3A
:103B900000F113801CF5000F58BFBCF5000F01D4D5
:103BA0008142704707D711F5000F58BF10F5000F7D
:103BB00015D481427047894270471CF5000F04D527
:103BC000BCF5000FF7D5884270474FF0807C1CEBA6
:103BD000410F38BF1CEB400F01D28842704780EA8A
:103BE000010081EA000180EA0100FFF7F8BE80F0E1
:103BF000004090EA010F7FF504AD81F0004100F034
:103C000008B8000090EA010F48BF81F000413FF57D
:103C1000F8AC421A04D882F00042A0EB0200114432
:103C20004FEAD0524FF07F4C1CEA410FA2EBD15328
:103C300018BF9CEA026F4AD04FF0004C4CEA0020BB
:103C40004CEA012121FA03FCB0EB0C0C0FD412F06A
:103C5000FE0F36D05FEA4C001DD5001240EBC2507B
:103C600038BF70471CF03F0F18BF70470BE0A2F140
:103C700001025FEA1C2040EBC25038BF70471CF0C5
:103C80007F0F18BF7047C3F12003994014BF401E37
:103C900020F00100704780084FEA122308BF7047E8
:103CA000B0FA80FCA2EB0C02CCF1280C60FA0CF00C
:103CB00093EA122F04BF00EBC25070474FEAC37063
:103CC0007047130A5FEADC1008BF7047F6E79CEA0A
:103CD000026F04D010EA5C0F08BF0020704710B5D7
:103CE000FFF709FF40DFF63E81F0004070474FF0DC
:103CF000000070470CF00F03092B08BF082000F0EC
:103D00005F800A2B0BD0082B18BF704708BF1CF030
:103D1000400F0AD04FF000004FF0000170471CF038
:103D2000400F18BF4FF0004070471CF0100F08D034
:103D300020F0704300F07F4242EAD3014FEA437023
:103D4000704700F0604021F07F4242EA000201F03B
:103D50007F4040EA727070474FF0FF0C4CF4E06C0B
:103D60001CEA11531CBF9CEA030C9445C2BFDA4203
:103D700001EB02517047002B0DD0BCF1000F0FD0AA
:103D8000002A01F00041A4BF41F0E04141F07F6111
:103D90004FF00000704701F000414FF00000704705
:103DA00050EA01334FF09B0C18BF4CF0806C7EF44E
:103DB000C9AF7047FCF7FEBBFCF712BEFCF7A0BF13
:103DC0001CF4801F11D01CF4E02F03D06FEACC311B
:103DD000490070474FF04050EFF3008222F07042EC
:103DE00042EA000282F3008870474FF000007047FB
:103DF00002400000000000A000000000054000009C
:103E0000000000C8000000000C4000000000409CC2
:103E100000000000194000000020BCBE00000000AF
:103E200034400000BFC91B8E00000004B5400000F4
:103E3000504BCFD06607E2CF010000006C4100007C
:103E40003E8251AADFEEA73401000000D9420000F3
:103E5000DCB5A0E23A301F97FFFFFFFFB44500003A
:103E6000FD25A0C8E9A3C14FFFFFFFFFFF3F0000F2
:103E70000000008000000000FF3F00000000008004
:103E800000000000E03F0008000000203C000000AF
:103E9000280100081C4000083C000020C407000066
:103EA00044010008000000000000F07FFFFFFFFF5A
:103EB000FFFFEF7F1C00000043000000F8FFFFFF42
:103EC0000C0000000E0000000F0000002E0000009B
:103ED0001001000043000000F8FFFFFF00404040D9
:103EE00040404040404041414141414040404040CD
:103EF0004040404040404040404040404005020279
:103F00000202020202020202020202020220202037
:103F10002020202020202002020202020202909093
:103F20009090909010101010101010101010101091
:103F300010101010101010100202020202028888E5
:103F400088888888080808080808080808080808F1
:103F500008080808080808080202020240000000D9
:103F60000000000000000000000000000000000051
:103F70000000000000000000000000000000000041
:103F80000000000000000000000000000000000031
:103F90000000000000000000000000000000000021
:103FA0000000000000000000000000000000000011
:103FB0000000000000000000000000000000000001
:103FC00000000000000000000000000000000000F1
:103FD00000000000000000000000000000000000E1
:103FE00000080140000C01400010014000000040AA
:103FF0000004004000080040003801400044004038
:104000000048004000000000010100000000000026
:0C401000000000000000000000000000A4
:04000005080000ED02
:00000001FF
